:020000040800F2
:1000000000000220E1280008210200082F02000859
:10001000350200083B020008410200080000000011
:10002000000000000000000000000000470200087F
:100030005502000800000000630200087102000879
:100040002D2900082D2900082D2900082D29000838
:100050002D2900082D290008252300084123000828
:100060005D23000879230008952300082D29000846
:100070002D2900082D2900082D2900082D29000808
:100080002D2900082D2900082D2900080000000056
:10009000000000000000000000000000B123000884
:1000A0002D2900082D2900082D2900082D290008D8
:1000B000D50F0008FD0F000825100008D50B00081B
:1000C000E90B0008FD0B0008110C00082D290008A1
:1000D0002D29000851170008E5170008000000004E
:1000E000312400082D2900082D29000800000000F7
:1000F0000000000000000000000000002D290008A2
:10010000000000002D2900084D1000082D290008CE
:1001100000000000000000000000000000000000DF
:100120002D2900082D2900082D2900082D29000857
:100130002D29000800000000000000000000000061
:100140000000000000000000000000002D29000851
:100150002D2900082D2900082D2900082D29000827
:10016000250C0008390C0008000000000000000009
:10017000000000000000000000000000000000007F
:10018000000000002D290008000000000000000011
:080190002D2900082D290008AB
:100198000348044B834202D0034B03B1184770470E
:1001A800180C0020180C0020000000000548064923
:1001B8000B1AD90F01EBA301491002D0034B03B16D
:1001C80018477047180C0020180C00200000000089
:1001D80010B5064C237843B9FFF7DAFF044B13B187
:1001E8000448AFF300800123237010BD180C0020D1
:1001F800000000004429000808B5044B1BB104495D
:100208000448AFF30080BDE80840CFE700000000D5
:100218001C0C00204429000880B400AF00BFBD4674
:100228005DF8047B704780B400AFFEE780B400AF90
:10023800FEE780B400AFFEE780B400AFFEE780B40D
:1002480000AF00BFBD465DF8047B704780B400AFC7
:1002580000BFBD465DF8047B704780B400AF00BFA7
:10026800BD465DF8047B704780B400AF00BFBD4653
:100278005DF8047B7047000080B483B000AF03468C
:10028800FB71FB79052B00F2928001A252F823F052
:10029800B1020008D9020008010300082903000878
:1002A8005103000879030008444B1B6803F001035D
:1002B800002B71D1414B1B68404A43F00103136086
:1002C80000BF3E4B1B6803F00203002BF9D063E02C
:1002D8003A4B1B6803F48033002B5FD1374B1B6804
:1002E800364A43F45023136000BF344B1B6803F4B1
:1002F8000033002BF9D051E0304B1B6803F08073BA
:10030800002B4DD12D4B1B682C4A43F08073136092
:1003180000BF2A4B1B6803F00073002BF9D03FE0A5
:10032800264B1B6803F08063002B3BD1234B1B68D3
:10033800224A43F08063136000BF204B1B6803F020
:100348000063002BF9D02DE01C4B5B6F03F0010319
:10035800002B29D1194B5B6F184A43F001035367EF
:1003680000BF164B5B6F03F00203002BF9D01BE0B4
:10037800124B1B6F03F00103002B17D10F4B1B6FA0
:100388000E4A43F00103136700BF0C4B1B6F03F0C9
:100398000203002BF9D009E000BF08E000BF06E027
:1003A80000BF04E000BF02E000BF00E000BF00BFE4
:1003B8000C37BD465DF8047B704700BF003802402B
:1003C80080B483B000AF0346FB71FB79052B39D8A5
:1003D80001A252F823F000BFF9030008070400083F
:1003E8001504000823040008310400083F0400082D
:1003F800174B1B68164A23F00103136022E0144BC5
:100408001B68134A23F4502313601BE0104B1B682E
:100418000F4A23F08073136014E00D4B1B680C4ADD
:1004280023F0806313600DE0094B5B6F084A23F0EB
:100438000103536706E0064B1B6F054A23F00103CF
:10044800136700BF00BF0C37BD465DF8047B7047DB
:100458000038024080B483B000AF0346FB710D4BF7
:100468009B6823F00302FB7903F003030949134354
:100478008B6000BF074B9B689B0803F00302FB7966
:100488009A42F7D100BF00BF0C37BD465DF8047B28
:10049800704700BF0038024080B584B000AF786074
:1004A8007B68072B08D87A681346DB009B1A9B00E9
:1004B8006F4A1344FB6001E06E4BFB60FB681B78DE
:1004C800012B0FD10120FFF7D7FE0120FFF7C2FF54
:1004D8000220FFF775FF0020FFF772FF664B01222D
:1004E8001A609DE0FB681B78022B40F08D80634BFF
:1004F8001B6C624A43F080531364FB685B78012BE2
:100508000CD10120FFF7B8FE5B4B01221A605B4B50
:100518005B685A4A43F4800353600BE00020FFF7FE
:10052800ABFE554B00221A60544B5B68534A23F4C8
:1005380080035360524B1B6823F04053FA68D27A09
:10054800120711464E4A0B4313604C4B9B6823F429
:100558007C4323F0F003FA68127A1201D2B21A43EC
:10056800FB685B7A9B0203F4E0531A43FB689B7AAF
:100578005B039BB2414913438B60404B5A68414B24
:100588001340FA68127902F03F021A43FB685B884D
:100598009B01194647F6C0730B401A43FB685B7909
:1005A8005B08DBB2013B1B0403F440331A43FB68CE
:1005B8009B791B0603F07C53304913434B600220A0
:1005C800FFF75AFE304B1B6823F00F02FB68DB680D
:1005D80003F00F0313432C4A43F4E0631360022033
:1005E800FFF738FFFB685B78012B09D1234B1B68A9
:1005F80003F00103002B03D00020FFF7E1FE0FE01A
:100608000120FFF7DDFE0BE00020FFF735FE00209C
:10061800FFF720FF0220FFF7D3FE0120FFF7D0FEEF
:10062800FB681B69144A5360FB685B69124A936054
:10063800FB685B7A002B02D1FB685B6902E0FB6810
:100648005B695B000C4AD360FB689B690A4A1361CB
:10065800FB689B7A002B02D1FB689B6902E0FB6870
:100668009B695B00044A536100BF1037BD4680BDDB
:100678000400002074000020340C002000380240E0
:10068800007000400080FCF0003C024080B582B061
:1006980000AF78600320FFF793FE7B689B681B0719
:1006A80003F0E0427B685B68990147F6C0730B4032
:1006B80042EA03017B681B6803F03F02104B1B688A
:1006C8000A43C3F884200320FFF7D6FD0D4B1B68AF
:1006D800002B01D00C4A00E00C4A7B681B68B2FB77
:1006E800F3F37A68526803FB02F27B689B68B2FBFB
:1006F800F3F3044A936100BF0837BD4680BD00BFCD
:100708003C2A0008340C002000127A000024F4006F
:1007180080B500AF174BD3F88830164A43F47003FE
:10072800C2F88830144B1B68134A43F00103136066
:10073800114B00229A60104B1B680F4A23F08473F8
:1007480023F4803313600C4B0C4A5A600A4B1B6825
:10075800094A23F480231360074B0022DA60022041
:10076800FFF79AFE034B4FF000629A6000F008F81A
:1007780000BF80BD00ED00E00038024010300024CA
:1007880080B487B000AF00233B6100237B61022364
:10079800FB600023BB6002237B60344B9B6803F043
:1007A8000C033B613B69082B11D03B69082B44D8EB
:1007B8003B69002B03D03B69042B04D03DE02C4B54
:1007C8002C4A1A603DE02A4B2B4A1A6039E0274B25
:1007D8005B689B0D03F00103BB60244B5B6803F06F
:1007E8003F037B60BB68002B0CD0234A7B68B2FBBD
:1007F800F3F31E4A52689209C2F3080202FB03F39C
:100808007B610BE01B4A7B68B2FBF3F3174A526823
:100818009209C2F3080202FB03F37B61134B5B6886
:100828001B0C03F0030301335B00FB607A69FB6870
:10083800B2FBF3F30E4A136003E00D4B0D4A1A6046
:1008480000BF0A4B9B681B0903F00F030B4AD35CDC
:100858003B61074B1A683B6922FA03F3044A1360A9
:1008680000BF1C37BD465DF8047B70470038024066
:10087800AC0000200024F40000127A00942A00083A
:1008880080B483B000AF0346FB71FB7903F01F020D
:10089800074997F907305B09012000FA02F241F88D
:1008A800232000BF0C37BD465DF8047B704700BFAE
:1008B80000E100E080B483B000AF03463960FB710B
:1008C80097F90730002B0BDA3B68DAB20C49FB7951
:1008D80003F00F03043B1201D2B20B441A7609E06D
:1008E8003B68DAB2074997F907301201D2B20B44D4
:1008F80083F8002300BF0C37BD465DF8047B7047C2
:1009080000ED00E000E100E080B483B000AF786063
:100918000D4B1B687A689A4201D10C4B0EE00C4BC8
:100928001B687A689A4201D10A4B07E00A4B1B6898
:100938007A689A4201D1094B00E0002318460C3727
:10094800BD465DF8047B7047D8290008B000002038
:10095800DC290008D0000020E0290008F000002071
:1009680090B486B000AF78607B681B687B617B6958
:100978005B693B616C4B1B6801336B4A13603B69D5
:1009880003F00103002B09D07B685B7A5B007A686F
:10099800127A13431A467B691A61C0E03B6903F077
:1009A8000203002B37D07B681B7A002B1CD17B6994
:1009B8009B69FB607B68DA687B689B69581C79686F
:1009C800886113441B781A467B691A617B689A69A7
:1009D8007B685B699A4240F0A2807B695B6823F47C
:1009E80080627B695A609AE07B681B7A012B40F031
:1009F80096807B681B69012B09D17B691B6823F4EE
:100A080080627B691A607B699B69FB6087E07B6910
:100A18009B69FB6083E03B6903F08003002B50D0A7
:100A28007B689A697B685B699A4218D27B68DA6846
:100A38007B689B69581C7968886113441B781A463F
:100A48007B691A617B689A697B685B699A4266D19F
:100A58007B695B6823F480627B695A605FE07B682E
:100A68009A697B685B699A4259D13B6903F0040330
:100A7800002B54D07B681B69002B12D07B680122A5
:100A88001A727B680022DA617B695B6843F48062D2
:100A98007B695A607B691B6843F4A0627B691A60B2
:100AA8003DE07B691B6843F400727B691A607B69CF
:100AB8005B6823F400727B695A607B6800225A6085
:100AC8002DE03B6903F04003002B28D07B691C69AB
:100AD8007B68DA687B68DB69581C7968C8611344ED
:100AE800E2B21A707B68DA697B681B69013B9A423B
:100AF80006D17B691B6823F480627B691A600EE06B
:100B08007B68DA697B681B699A4208D17B691B6834
:100B180043F400727B691A607B6800225A6000BF48
:100B28001837BD4690BC7047500C002080B485B083
:100B380000AF78607B681B68FB60FB685B69BB6023
:100B4800BB6803F48073002B0AD0FB685B6923F44D
:100B58008072FB685A617B684FF0FF325A6029E067
:100B6800BB6803F40073002B0AD0FB685B6923F4AD
:100B78000072FB685A617B686FF005025A6019E0E1
:100B8800BB6803F48063002B0AD0FB685B6923F41D
:100B98008062FB685A617B686FF007025A6009E05F
:100BA800FB685B6923F45F42FB685A617B684FF01E
:100BB800FF325A60FB681B6843F40072FB681A60D6
:100BC80000BF1437BD465DF8047B704780B500AFA1
:100BD8000248FFF7C5FE00BF80BD00BFB00000207F
:100BE80080B500AF0248FFF7A1FF00BF80BD00BF7E
:100BF800B000002080B500AF0248FFF7B1FE00BF8B
:100C080080BD00BFD000002080B500AF0248FFF7CC
:100C18008DFF00BF80BD00BFD000002080B500AFB1
:100C28000248FFF79DFE00BF80BD00BFF000002016
:100C380080B500AF0248FFF779FF00BF80BD00BF55
:100C4800F000002080B586B000AF7860414B1B688B
:100C58007A689A4267D1404B1B681A6C3E4B1B68F6
:100C680042F400121A643D4B186800233C4A4FF4C2
:100C7800407101F027FC1F23FB752023BB7502235D
:100C88003B610123FB607B681B6843F400427B687F
:100C98001A607B6800221A60324B9B68324AA2FBBA
:100CA80003239A0C7B685A602E4B9B682F4AA2FB41
:100CB8000323DB0C43F400427B68DA61294B9B6811
:100CC800294AA2FB03239B0C4FF4967202FB03F301
:100CD800274AA2FB03239B095A1C7B681A627B687C
:100CE8005B6A23F01F027B685A6297F91630F9682D
:100CF8001846FFF7DFFD97F9173039691846FFF7EF
:100D0800D9FD97F916301846FFF7BAFD97F917304D
:100D18001846FFF7B5FD7B681B6843F001027B6846
:100D28001A60002311E0134B1B687A689A4202D1BB
:100D38004FF0FF3309E0104B1B687A689A4202D1E2
:100D48004FF0FF3301E04FF0FF3318461837BD4628
:100D580080BD00BFD82900083C2A0008242A0008C2
:100D680044000200340C002083DE1B43851DD96F2C
:100D7800D34D6210DC290008E029000880B586B050
:100D880000AFF8607A603B600B46FB72F868FFF7CB
:100D9800BBFD38613B69002B36D03B6901225A60A4
:100DA8003B69FA7A5A723B697A68DA603B690022D1
:100DB8001A613B693A685A613B690022DA613B690A
:100DC800DA693B699A613B6900221A72FB685B68C1
:100DD80043F4E062FB685A60FB681B6843F4807266
:100DE800FB681A6000BF3B695B68012BFBD00023DE
:100DF8007B6103E000BF7B6901337B617B69632B07
:100E0800F8DD3B695B6801E04FF0FF33184618379F
:100E1800BD4680BD80B586B000AFF8607A603B60A3
:100E28000B46FB72F868FFF76FFD38613B69002BD2
:100E380036D03B6901225A603B69FA7A5A723B699B
:100E48007A68DA603B693A681A613B6900225A613C
:100E58003B690022DA613B69DA693B699A613B695F
:100E680001221A72FB685B6843F4E062FB685A600F
:100E7800FB681B6843F4A062FB681A6000BF3B690B
:100E88005B68012BFBD000237B6103E000BF7B691B
:100E980001337B617B69632BF8DD3B695B6801E0AB
:100EA8004FF0FF3318461837BD4680BD80B586B071
:100EB80000AFF8607A603B600B46FB72F868FFF79A
:100EC80023FD38613B69002B36D03B6901225A600B
:100ED8003B69FA7A5A723B697A68DA603B693A6A1E
:100EE8001A613B693A685A613B690022DA613B69D9
:100EF800DA693B699A613B6900221A72FB685B6890
:100F080043F4E062FB685A60FB681B6843F4807234
:100F1800FB681A6000BF3B695B68012BFBD00023AC
:100F28007B6103E000BF7B6901337B617B69632BD5
:100F3800F8DD3B695B6801E04FF0FF33184618376E
:100F4800BD4680BD80B483B000AF0346FB71FB791A
:100F580003F01F02074997F907305B09012000FADF
:100F680002F241F8232000BF0C37BD465DF8047B30
:100F7800704700BF00E100E080B483B000AF0346D3
:100F88003960FB7197F90730002B0BDA3B68DAB24E
:100F98000C49FB7903F00F03043B1201D2B20B4456
:100FA8001A7609E03B68DAB2074997F90730120167
:100FB800D2B20B4483F8002300BF0C37BD465DF85E
:100FC800047B704700ED00E000E100E080B500AF71
:100FD800064B1B689847064B1B681A69044B1B682D
:100FE80022F01F021A6100BF80BD00BF540C002010
:100FF800A829000880B500AF064B1B689847064B28
:101008001B681A69044B1B6822F01F021A6100BF93
:1010180080BD00BF580C0020AC29000880B500AF87
:10102800064B1B689847064B1B681A69044B1B68DC
:1010380022F01F021A6100BF80BD00BF5C0C0020B7
:10104800B029000880B500AF064B1B689847064BCF
:101058001B681A69044B1B6822F01F021A6100BF43
:1010680080BD00BF600C0020B429000880B485B0A2
:1010780000AF78603960384B1B687A689A420BD1A8
:10108800364BDB68FB60364B1B681A6C344B1B68AD
:1010980042F001021A6435E0324B1B687A689A42C2
:1010A8000BD12E4BDB68FB602D4B1B681A6C2C4B4D
:1010B8001B6842F002021A6424E02B4B1B687A6812
:1010C8009A420BD1254BDB68FB60254B1B681A6CD9
:1010D800234B1B6842F004021A6413E0234B1B687D
:1010E8007A689A420BD11D4BDB68FB601C4B1B686E
:1010F8001A6C1B4B1B6842F008021A6402E04FF09E
:10110800FF3323E07B6888221A60FB68184AA2FB39
:1011180003235B0B5A1E7B689A623A6813469B004E
:1011280013445B005A1E7B68DA627B6801225A61AD
:101138007B681B6843F001027B681A6000BF7B680C
:101148001B6803F00103002BF9D10023184614375C
:10115800BD465DF8047B7047A8290008340C0020C0
:101168003C2A0008AC290008B0290008B429000866
:101178005917B7D180B485B000AF78603960364B65
:101188001B687A689A420BD1344BDB68FB60344B9E
:101198001B681A6C324B1B6842F001021A6435E076
:1011A800304B1B687A689A420BD12C4BDB68FB608A
:1011B8002B4B1B681A6C2A4B1B6842F002021A64FC
:1011C80024E0294B1B687A689A420BD1234BDB68D1
:1011D800FB60234B1B681A6C214B1B6842F004020E
:1011E8001A6413E0214B1B687A689A420BD11B4B97
:1011F800DB68FB601A4B1B681A6C194B1B6842F0C2
:1012080008021A6402E04FF0FF331FE07B6888226F
:101218001A60FB68164AA2FB03239B0C5A1E7B68C4
:101228009A623B685A1E7B68DA627B6801225A61BF
:101238007B681B6843F001027B681A6000BF7B680B
:101248001B6803F00103002BF9D10023184614375B
:10125800BD465DF8047B7047A8290008340C0020BF
:101268003C2A0008AC290008B0290008B429000865
:1012780083DE1B4380B588B000AFF860B9607A6040
:10128800574BDB687B61574B1B68FA689A420BD156
:10129800554A7B681360554B1B681A6C534B1B6887
:1012A80042F001021A6435E0514B1B68FA689A4211
:1012B8000BD1504A7B6813604C4B1B681A6C4B4B24
:1012C8001B6842F002021A6424E04B4B1B68FA6860
:1012D8009A420BD1494A7B681360444B1B681A6CCD
:1012E800424B1B6842F004021A6413E0444B1B682B
:1012F800FA689A420BD1434A7B6813603B4B1B68E0
:101308001A6C3A4B1B6842F001021A6402E04FF073
:10131800FF3360E0FB681B6923F01F02FB681A615A
:10132800FB681B6823F08002FB681A60FB681B6877
:1013380043F08002FB681A607A69334BA3FB0213FF
:10134800D21A520813445A0AFB689A62BA681346BA
:101358009B0013445B005A1EFB68DA627B68002B13
:1013680038D0204B1B68FA689A4204D11C23FB77BB
:101378000523BB6120E01E4B1B68FA689A4204D122
:101388001D23FB770623BB6116E01B4B1B68FA681D
:101398009A4204D11E23FB770723BB610CE0184B4C
:1013A8001B68FA689A4204D13223FB770823BB6191
:1013B80002E04FF0FF330EE097F91F30B969184685
:1013C800FFF7DAFD97F91F301846FFF7BBFDFB68FA
:1013D8000122DA60002318462037BD4680BD00BFD1
:1013E800340C0020A8290008540C00203C2A0008CE
:1013F800AC290008580C0020B02900085C0C00201B
:10140800B4290008600C0020410A680680B483B043
:1014180000AF78603960002318460C37BD465DF888
:10142800047B704780B483B000AF78607B6801228A
:101438005A61074B1B681A68054B1B6842F001028A
:101448001A6000BF0C37BD465DF8047B704700BFCB
:10145800A829000880B483B000AF78607B681B6857
:1014680023F001027B681A6000BF0C37BD465DF8A7
:10147800047B704780B483B000AF78607B685B6A98
:1014880018460C37BD465DF8047B704780B485B0BC
:1014980000AF78603960314B1B687A689A420BD18B
:1014A8002F4BDB68FB602F4B1B681A6C2D4B1B689E
:1014B80042F001021A6435E02B4B1B687A689A42A5
:1014C8000BD1274BDB68FB60264B1B681A6C254B3E
:1014D8001B6842F002021A6424E0244B1B687A68F5
:1014E8009A420BD11E4BDB68FB601E4B1B681A6CC3
:1014F8001C4B1B6842F004021A6413E01C4B1B6867
:101508007A689A420BD1164BDB68FB60154B1B6857
:101518001A6C144B1B6842F008021A6402E04FF080
:10152800FF3315E07B681B6923F01F027B681A6193
:101538007B6880221A60FB680E4AA2FB03239B0C7F
:101548005A1E7B689A623B685A1E7B68DA620023DF
:1015580018461437BD465DF8047B7047A829000873
:10156800340C00203C2A0008AC290008B0290008E7
:10157800B429000883DE1B4380B485B000AFF8604F
:10158800B9607A603B60BB68032B02D87B68642B28
:1015980001D900234EE0FB68DB6A01337A6802FB5D
:1015A80003F3274AA2FB03235A09F968BB680C33E3
:1015B8009B000B445A60BB685A08FB68063253F814
:1015C8002230BA68D20002F00802FF2101FA02F2C2
:1015D800D2431340BA68D20002F00802682101FA27
:1015E80002F21146BA6852081943FB68063243F8FA
:1015F80022103B68002B11D0FB681B6ABA68920066
:101608000F2101FA02F2D2431340BA689200012175
:1016180001FA02F21A43FB681A620AE0FB681B6AC5
:10162800BA6892000F2101FA02F2D2431A40FB680D
:101638001A62012318461437BD465DF8047B7047CB
:101648001F85EB5180B483B000AF786039607B6848
:101658001B6A3A6892000F2101FA02F2D2431A403B
:101668007B681A62012318460C37BD465DF8047B77
:10167800704780B485B000AFF860B9607A60BB6825
:10168800032B02D87B68642B01D9002310E0FB6888
:10169800DB6A01337A6802FB03F3084AA2FB0323DF
:1016A8005A09F968BB680C339B000B445A60012344
:1016B80018461437BD465DF8047B70471F85EB510B
:1016C80080B483B000AF0346FB71FB7903F01F02BF
:1016D800074997F907305B09012000FA02F241F83F
:1016E800232000BF0C37BD465DF8047B704700BF60
:1016F80000E100E080B483B000AF03463960FB71BD
:1017080097F90730002B0BDA3B68DAB20C49FB7902
:1017180003F00F03043B1201D2B20B441A7609E01E
:101728003B68DAB2074997F907301201D2B20B4485
:1017380083F8002300BF0C37BD465DF8047B704773
:1017480000ED00E000E100E080B582B000AF214B81
:101758001B681B687B607B6803F02003002B1AD092
:101768007B6803F00403002B11D17B6803F00403AA
:10177800002B0CD1184B1B68002B27D0164B1B686D
:10178800144A12685268D2B2104698471EE0114BAC
:101798001B685B681AE07B6803F01003002B03D01A
:1017A8000C4B1B685B6811E07B6803F00803002B97
:1017B80003D0084B1B685B6808E07B6803F00103F3
:1017C800002B03D0034B1B685B68FFE700BF08379B
:1017D800BD4680BDEC290008640C002080B582B0AD
:1017E80000AF214B1B681B687B607B6803F02003FC
:1017F800002B1AD07B6803F00403002B11D17B68FF
:1018080003F00403002B0CD1184B1B68002B27D0C6
:10181800164B1B68144A12685268D2B21046984791
:101828001EE0114B1B685B681AE07B6803F010032D
:10183800002B03D00C4B1B685B6811E07B6803F03E
:101848000803002B03D0084B1B685B6808E07B6823
:1018580003F00103002B03D0034B1B685B68FFE711
:1018680000BF0837BD4680BDD4290008680C002099
:1018780080B586B000AFF860B9607A603B604E4BC7
:101888001B68FA689A421DD14C4B1B685A6C4B4B2B
:101898001B6842F010025A64494B18680023494AF1
:1018A800082100F00FFE484A3B6813602523FB75AA
:1018B80003233B61454B1A69BB68B2FBF3F2FB6833
:1018C8009A602DE0424B1B68FA689A421DD13B4B47
:1018D8001B681A6C394B1B6842F400321A643D4B82
:1018E80018680023374A0C2100F0ECFD3A4A3B689F
:1018F80013602623FB7503233B61344B9A68BB684E
:10190800B2FBF3F2FB689A600AE0344B1B68FA6892
:101918009A4202D14FF0FF3349E04FF0FF3346E0DF
:10192800FB68DB6823F48052FB68DA60FB68DB68DD
:1019380023F4E062FB68DA60FB681B6923F4405219
:10194800FB681A61FB6800229A61FB6800225A61F1
:10195800FB68DA687B681B0303F480517B6803F437
:10196800E0630B43134343F4005343F00C03FA685A
:10197800D360FB681A697B681B0203F440531A435F
:10198800FB681A613B68002B10D097F9173039694A
:101998001846FFF7AFFE97F917301846FFF790FE85
:1019A800FB68DB6843F02002FB68DA600123184615
:1019B8001837BD4680BD00BFEC2900083C2A000846
:1019C800242A000807000200640C0020340C0020C0
:1019D800D4290008202A0008680C0020F0290008F3
:1019E80080B483B000AF786000BF7B681B6803F0E9
:1019F8002003002BF9D07B685B68DBB218460C37F4
:101A0800BD465DF8047B704780B483B000AF786052
:101A180039607B681B6803F02003002B04D07B68C7
:101A28005B68DAB23B681A70002318460C37BD466B
:101A38005DF8047B704780B483B000AF78600B46D4
:101A4800FB7000BF7B681B6803F08003002BF9D094
:101A5800FA787B685A6000BF0C37BD465DF8047B96
:101A6800704780B582B000AF786039603B68002B62
:101A78000CD007E03B685A1C3A601B781946786816
:101A8800FFF7D9FF3B681B78002BF3D100BF08375D
:101A9800BD4680BD0EB480B591B000AF786007F147
:101AA80050033B63B7E0FB6C1B78252B40F0AA8002
:101AB800FB6C0133FB64FB6C1B78252B3CD0252B7E
:101AC800C0F29980782B00F39680632BC0F2938044
:101AD800633B152B00F28F8001A252F823F000BF60
:101AE8004B1B0008791B0008FF1B0008FF1B0008A0
:101AF800FF1B0008FF1B0008FF1B0008FF1B000856
:101B0800FF1B0008FF1B0008FF1B0008FF1B000845
:101B1800FF1B0008FF1B0008FF1B0008FF1B000835
:101B2800651B0008FF1B0008B31B0008FF1B00080B
:101B3800FF1B0008D91B000825217868FFF77BFFE9
:101B480066E03B6B1A1D3A631B6887F8373097F8D5
:101B5800373019467868FFF76EFF59E03B6B1A1D5E
:101B68003A631B68BB63B96B7868FFF77AFF4FE08D
:101B78003B6B1A1D3A631B68FB63FB6B002B06DA91
:101B88002D217868FFF757FFFB6B5B42FB6307F17A
:101B98000C030A22F96B184600F044FE07F10C0307
:101BA80019467868FFF75DFF32E03B6B1A1D3A6310
:101BB8001B68FB6307F10C030A22F96B184600F057
:101BC80031FE07F10C0319467868FFF74AFF1FE05A
:101BD8003B6B1A1D3A631B68FB6307F10C03102269
:101BE800F96B184600F01EFE07F10C0319467868D9
:101BF800FFF737FF0CE0FB6C1B7819467868FFF796
:101C08001AFF05E0FB6C1B7819467868FFF713FF8D
:101C1800FB6C0133FB64FB6C1B78002B7FF443AF38
:101C280000BF00BF4437BD46BDE8804003B07047E1
:101C380080B500AF0B4B1868002300224FF4E13148
:101C4800FFF716FE084B1B681846FEF7FBFF00F06F
:101C580011F800F0A9F9054B1B6805491846FFF76C
:101C680089FAF6E7D4290008D8290008AC29000821
:101C78008096980080B582B000AF2248FEF7E2FF58
:101C8800002000F04BF80121002000F083F8034603
:101C9800FB70FB78202B06D01B4B1B681B49184692
:101CA800FFF7DFFE2AE0FB78202B05D1164B1B68D7
:101CB80017491846FFF7EEFE00237B6011E0154A2E
:101CC8007B6852F83330DAB212497B68DB000B4488
:101CD8005B68DBB21946104600F042F87B680133B6
:101CE8007B607B68DA2BEAD9002000F017F8064BF6
:101CF8001B6809491846FFF7CDFE00BF0837BD46E7
:101D080080BD00BF00540040D4290008AC2A000858
:101D1800C82A000810010020D82A000880B584B01D
:101D280000AF0346FB71FB79002B04D1EF233B7313
:101D380000237B7306E0FB79012B0BD1EF233B7368
:101D480001237B7307F10C02022373210348FFF779
:101D580015F800E000BF1037BD4680BD00540040B4
:101D680080B584B000AF03460A46FB711346BB71C9
:101D7800FB793B73BB797B7307F10C020223732158
:101D88000348FEF7FBFF00BF1037BD4680BD00BF0C
:101D98000054004080B584B000AF03460A46FB718A
:101DA8001346BB71FB793B7307F10C0201237321C6
:101DB8000E48FEF7E3FF0346FB73FB7B002B01D0C5
:101DC80000230EE0BB7907F10B0273210748FFF7E8
:101DD80021F80346FB73FB7B002B01D0002300E0B6
:101DE800FB7A18461037BD4680BD00BF005400403E
:101DF80080B582B000AF01214320FFF7CBFF034637
:101E0800FB71FB79082B23D1644B1B686449184686
:101E1800FFF7B0F901214320FFF7BCFF0346FB7130
:101E2800FB79102B07D15D4B1B685E491846FFF7FD
:101E3800A1F90123ADE0FB79202B07D1574B1B6893
:101E480058491846FFF796F90223A2E00323A0E0B9
:101E5800FB79042B23D1514B1B6851491846FFF7D6
:101E680089F901214320FFF795FF0346FB71FB79B0
:101E7800102B07D1494B1B684A491846FFF77AF9D6
:101E8800012386E0FB79202B07D1444B1B68454989
:101E98001846FFF76FF902237BE0042379E0FB790A
:101EA800012B23D13D4B1B683D491846FFF762F9CA
:101EB80001214320FFF76EFF0346FB71FB79102BCE
:101EC80007D1364B1B6837491846FFF753F90123EA
:101ED8005FE0FB79202B07D1304B1B68314918464E
:101EE800FFF748F9022354E0052352E0FB79022B5F
:101EF80023D12A4B1B682A491846FFF73BF90121D1
:101F08004320FFF747FF0346FB71FB79102B07D1EE
:101F1800224B1B6823491846FFF72CF9012338E0A8
:101F2800FB79202B07D11D4B1B681E491846FFF76C
:101F380021F902232DE006232BE0FB79102B07D192
:101F4800164B1B6817491846FFF714F9012320E0C0
:101F5800FB79202B07D1114B1B6812491846FFF754
:101F680009F9022315E0FB79402B01D1072310E082
:101F7800FB79802B01D108230BE001214420FFF7D6
:101F880009FF0346FB71FB79012B01D1092300E00E
:101F9800002318460837BD4680BD00BFAC2900089D
:101FA80000350C0040420F0080B582B000AF01211F
:101FB8004320FFF7EFFE0346FB71FB79082B32D174
:101FC8008D4B1B688D491846FFF7D4F80121432033
:101FD800FFF7E0FE0346FB71FB79102B0CD1884B11
:101FE8001B6888491846FFF755FD834B1B688649CF
:101FF8001846FFF7BFF8FBE0FB79202B0CD1804B8C
:102008001B6882491846FFF745FD7B4B1B687E49D4
:102018001846FFF7AFF8EBE0794B1B687C49184688
:10202800FFF738FDE4E0FB79042B32D1724B1B68D3
:1020380072491846FFF79EF801214320FFF7AAFED0
:102048000346FB71FB79102B0CD16D4B1B68714952
:102058001846FFF71FFD684B1B686B491846FFF7CA
:1020680089F8C5E0FB79202B0CD1654B1B686749C3
:102078001846FFF70FFD604B1B6863491846FFF7CA
:1020880079F8B5E05E4B1B6863491846FFF702FD17
:10209800AEE0FB79012B32D1574B1B6857491846E4
:1020A800FFF768F801214320FFF774FE0346FB7130
:1020B800FB79102B0CD1524B1B6858491846FFF777
:1020C800E9FC4D4B1B6850491846FFF753F88FE061
:1020D800FB79202B0CD14A4B1B684C491846FFF75B
:1020E800D9FC454B1B6848491846FFF743F87FE081
:1020F800434B1B684A491846FFF7CCFC78E0FB794C
:10210800022B32D13C4B1B683C491846FFF732F88A
:1021180001214320FFF73EFE0346FB71FB79102B9C
:102128000CD1374B1B683D491846FFF7B3FC324BBF
:102138001B6835491846FFF71DF859E0FB79202B35
:102148000CD12F4B1B6831491846FFF7A3FC2A4BCB
:102158001B682D491846FFF70DF849E0284B1B6806
:1021680030491846FFF796FC42E0FB79102B0CD15A
:10217800234B1B6829491846FFF78CFC1E4B1B682C
:1021880021491846FEF7F6FF32E0FB79202B0CD1E7
:102198001B4B1B681D491846FFF77CFC164B1B6838
:1021A80019491846FEF7E6FF22E0FB79402B06D1D5
:1021B800134B1B681C491846FFF76CFC18E0FB79A9
:1021C800802B06D10E4B1B6818491846FFF762FC96
:1021D8000EE001214420FFF7DDFD0346FB71FB798A
:1021E800012B05D1064B1B6811491846FFF752FC15
:1021F80000BF0837BD4680BDAC29000800350C007B
:10220800D4290008F02A000840420F00FC2A0008E0
:10221800082B0008102B00081C2B0008242B000892
:10222800302B0008382B0008402B00084C2B0008E6
:10223800602B0008002301461A46184600F03AB8F9
:1022480038B5084B084D5B1B9C1007D0043B1D4458
:10225800013C55F804399847002CF9D1BDE83840BD
:1022680000F072BBB02B0008AC2B000870B50D4E07
:102278000D4D761BB61006D0002455F8043B0134EA
:102288009847A642F9D1094E094D761B00F056FB36
:10229800B61006D0002455F8043B01349847A642EE
:1022A800F9D170BDA42B0008A42B0008AC2B0008A2
:1022B800A42B000870B4184C2568D5F848411CB305
:1022C80065681F2D25DC38B9AB1C0135656044F8FD
:1022D8002310002070BC704704EB850C0228CCF852
:1022E8008820D4F888614FF0010202FA05F246EA24
:1022F8000206C4F88861CCF80831E5D1D4F88C31ED
:102308001343C4F88C31DFE705F5A674C5F84841D6
:10231800D6E74FF0FF30DDE7682B000808B5044B1F
:102328001B6803B19847034B01225A6108BD00BFDF
:10233800700C0020003C014008B5044B5B6803B1F9
:102348009847034B02225A6108BD00BF700C002059
:10235800003C014008B5044B9B6803B19847034B08
:1023680004225A6108BD00BF700C0020003C0140E7
:1023780008B5044BDB6803B19847034B08225A6140
:1023880008BD00BF700C0020003C014008B5044B9C
:102398001B6903B19847034B10225A6108BD00BF5F
:1023A800700C0020003C014008B51D4B5A6992068C
:1023B80007D51C4B5B6903B19847194B20225A611A
:1023C80008BD5A69500607D5164B9B6903B1984753
:1023D800134B40225A6108BD5A69110607D5114BA3
:1023E800DB6903B198470E4B80225A6108BD5A69D0
:1023F800D20508D50B4B1B6A03B19847084B4FF41D
:1024080080725A6108BD5B699B05D9D5054B5B6A2B
:1024180003B19847024B4FF400725A6108BD00BFE0
:10242800003C0140700C002008B5244B5A69510546
:1024380008D5234B9B6A03B19847204B4FF4806221
:102448005A6108BD5A69120508D51D4BDB6A03B1EC
:1024580098471A4B4FF400625A6108BD5A69D00474
:1024680008D5174B1B6B03B19847144B4FF4805298
:102478005A6108BD5A69910408D5114B5B6B03B1C9
:1024880098470E4B4FF400525A6108BD5A695204DE
:102498000BD45B691B04D4D5094BDB6B03B198479C
:1024A800064B4FF400425A6108BD054B9B6B03B1C4
:1024B8009847024B4FF480425A6108BD003C0140E6
:1024C800700C00202DE9F04FAF4C85B0A042CDE94B
:1024D8000032894600F0BE80AC4B984214D0AC4B19
:1024E800984200F06881AB4B984200F06D81AA4B8E
:1024F800984200F04381A94B98420AD1A84A136B2D
:1025080043F08003136304E0A54A136B43F002030E
:102518001363019B0768C66845688168039003F4E4
:102528004034C3F30122C3F3011AC3F3801BC3F37E
:10253800014302934FF0010EDDF808C00294002316
:10254800F04614464FEA4E0219EA0E0F1FFA82FEB1
:102558004FEA430217D00320904027EA000726EAF3
:10256800000621EA000108FA03F025EA00050BFA43
:1025780003F005430CFA02F0074304FA02F00AFAE2
:1025880002F2064311430133102BDBD1DDE902408F
:10259800B4F5003F0760C6604560816025D0009BA8
:1025A800002B53D0002C40F01881774B984257D01D
:1025B80003F58063984200F0FB8003F5806398423E
:1025C80000F0FF8003F58063984200F0D48003F5A3
:1025D8008063984200F0FE8003F5406398420CBF88
:1025E8004FF0070B4FF0000B3BE0019B026A03F032
:1025F8000F06436A002401254FF00F0C690019EA01
:10260800050F8DB206D00CFA04F706FA04F122EA97
:1026180007020A430434202CF0D102624FF480717F
:1026280000220F274C0019EA010FA1B206D007FAC1
:1026380002F506FA02F423EA050323430432202AAA
:10264800F0D14362009B002B40F0C780002005B00A
:10265800BDE8F08F524A136B43F00103136358E748
:10266800A34601994E4F4F4ADFF840C101F480500C
:10267800012601F4005133464FF00F0801900291F2
:102688004FF0800E19EA030F41D0796C41F4804174
:10269800796424F0030101F1804101F59C31A00027
:1026A8008D6800F00C0008FA00FA25EA0A050BFA12
:1026B80000F005438D601168019819431160516855
:1026C80021EA03015160D94300284AD09068184391
:1026D8009060029800284AD0D1681943D1603249E5
:1026E800009841F82400611E53610E2978D8DFE86C
:1026F80001F025312A1C15151515150808080808B4
:1027080008004FF480718CF828E3CCF804105B00C3
:10271800102E9BB29AD001340136B3E74FF4000172
:102728008CF817E3CCF80010F1E74FF480618CF8CF
:102738000AE3CCF800105B009BB2ECE78CF807E3E7
:10274800CCF800E0F7E74FF400718CF809E3CCF817
:102758000010F0E74FF480718CF808E3CCF8001013
:10276800E9E790680840906002980028B4D1D068E2
:102778000140D160B3E74FF0030B72E7084A136BCF
:1027880043F010031363C4E6000002400004024053
:1027980000080240000C024000100240001C0240E9
:1027A80000380240003C0140700C002000E100E0CD
:1027B8004FF0010B55E70D4A136B43F00403136305
:1027C800A7E64FF0020B4CE7084A136B43F00803E7
:1027D80013639EE64FF0040B43E74FF0FF3036E7F4
:1027E80040218CF806E3CCF8001090E7003802404E
:1027F80000690840704700BF22EA0103114041EA1E
:1028080003418161704700BF22EA0103114043EA96
:1028180001418161704700BF81617047090481618E
:10282800704700BF30B5124D0346B1FBF2FC02FB06
:102838001C148E469645295D03F8011B6146F4D2A7
:102848001A1A002102EBD27E012A19704FEA6E0E85
:102858000DDD411E1A460B4602331B1A11F8014FB3
:1028680012F801CD81F800C073451470F3DB30BD58
:102878006C2B000810F8012B5AB300B54FF0000C70
:10288800A2F130035FFA83FEBEF1090F09D91029BE
:1028980010D060465DF804FBBEF1050FF9D8A2F12F
:1028A800570310F8012B0CFB013C002AE8D16046C5
:1028B8005DF804FBA2F14103052BA2F1610EEBD8F0
:1028C800A2F1370310F8012B0CFB013C002AD7D1E9
:1028D800EDE71046704700BF0D480E490E4A914279
:1028E80004D050F8044B41F8044BF8E70B480C4966
:1028F8004FF00002884202D040F8042BFAE7FDF7B7
:1029080007FFFFF7B3FCFFF793F9FFF7FEBF0000DF
:10291800B02B000800000020180C0020180C002024
:10292800B00C0020FEE70000024B13B10248FFF78D
:1029380081BC70470000000049220008F8B500BFBC
:10294800F8BC08BC9E467047F8B500BFF8BC08BC88
:042958009E467047E0
:10295C003A3D0A3D0F3D243D323D023D053D133DC0
:10296C000D3D0C3D233D113D263D013D173D083DE0
:10297C00093D000000E000E000ED00E010E000E0A8
:10298C0000E100E0000000E0001000E0000004E0C6
:10299C00F0ED00E090ED00E030EF00E000000040D2
:1029AC000004004000080040000C004000280040DB
:1029BC00002C004000300040003400400038004043
:1029CC00003C0040004000400044004000540040E7
:1029DC0000580040005C00400070004000000140C6
:1029EC000010014000140140002001400023014070
:1029FC00002C0140003001400034014000380140FF
:102A0C00003C0140004001400044014000480140AE
:102A1C000050014000000240000402400008024047
:102A2C00000C024000100240001C0240003002402A
:102A3C0000380240003C024000600240106002403E
:102A4C0028600240406002405860024070600240C2
:102A5C0088600240A0600240B860024000640240FE
:102A6C0010640240286402404064024058640240F2
:102A7C007064024088640240A0640240B864024062
:102A8C00002004E0000000500000000000000000E6
:102A9C0001020304060708090000000001020304F8
:102AAC000A0D204572726575722061766563206C23
:102ABC006520636170746575720000000D0A4361D6
:102ACC007074657572204F4E200000000D0A436132
:102ADC00707465757220696E697469616C6973656F
:102AEC00722E0000466F7277617264200D0A00002E
:102AFC004261636B776172640D0A0000526967680A
:102B0C00740D0A00466F72776172640A000000004F
:102B1C004C6566740D0A0000466F72776172640D25
:102B2C000A00000055700D0A00000000446F776E1B
:102B3C000D0A0000436C6F636B776973650D0A00B7
:102B4C00616E74692D636C6F636B776973650D0AC5
:102B5C0000000000776176650D0A0000F007002088
:102B6C0030313233343536373839414243444546B7
:102B7C00000000003A3D0A3D0F3D243D323D023D30
:102B8C00053D133D0D3D0C3D233D113D263D013DC5
:082B9C00173D083D093D000052
:082BA4003129000801020008BC
:042BAC00D901000843
:102BB0000000000001000000000000000000000014
:102BC0000000000000000000000000000000000005
:102BD0000201600008020200000504010300000079
:102BE000006CDC02001BB70000366E0102015001D0
:102BF00008040700000400020200000000BD0105F7
:102C000080DE800200BD01050201C0000802020052
:102C1000000400030300000000D8B805006CDC02CB
:102C200000D8B8050000000000000000000000000F
:102C30000000000000000000000000000000000094
:102C40000200500108040700000400020200000016
:102C500000BD010580DE800200BD01050024F400F6
:102C600000540040000000000000000000000000D0
:102C70000000000000000000000000000000000054
:102C800000580040000000000000000000000000AC
:102C90000000000000000000000000000000000034
:102CA000005C004000000000000000000000000088
:102CB0000000000000000000000000000000000014
:102CC000EF000000000000003200000029000000BA
:102CD000330000000100000034000000000000008C
:102CE0003500000001000000360000000000000078
:102CF0003700000007000000380000001700000047
:102D000039000000060000003A0000001200000038
:102D10003F00000000000000400000000200000032
:102D200041000000FF000000420000000100000020
:102D3000460000002D000000470000000F000000CA
:102D4000480000003C0000004900000000000000B6
:102D50004A0000001E0000004B00000000000000C0
:102D60004C000000200000004D00000000000000AA
:102D70004E0000001A0000004F0000001400000088
:102D80005000000000000000510000001000000092
:102D900052000000000000005C0000000200000083
:102DA0005D000000000000005E0000001000000058
:102DB0005F0000003F0000006000000027000000EE
:102DC0006100000028000000620000000000000018
:102DD000630000000300000064000000F700000032
:102DE000650000000300000066000000D90000003C
:102DF0006700000003000000680000000100000000
:102E000069000000C80000006A00000040000000E7
:102E10006D000000040000006E00000000000000D3
:102E20006F00000000000000700000008000000043
:102E300071000000000000007200000000000000AF
:102E4000730000000000000074000000F0000000AB
:102E5000750000000000000080000000420000003B
:102E60008100000044000000820000000400000017
:102E7000830000002000000084000000200000000B
:102E80008500000000000000860000001000000027
:102E9000870000000000000088000000050000001E
:102EA00089000000180000008A00000010000000E7
:102EB0008B000000010000008C00000037000000C3
:102EC0008D000000000000008E000000F0000000F7
:102ED0008F0000008100000090000000060000004C
:102EE0009100000006000000920000001E0000009B
:102EF000930000000D000000940000000A00000094
:102F0000950000000A000000960000000C00000080
:102F10009700000005000000980000000A00000073
:102F200099000000410000009A0000001400000019
:102F30009B0000000A0000009C0000003F00000011
:102F40009D000000330000009E000000AE00000065
:102F50009F000000F9000000A000000048000000F1
:102F6000A100000013000000A200000010000000FB
:102F7000A300000008000000A400000030000000D2
:102F8000A500000019000000A600000010000000CD
:102F9000A700000008000000A800000024000000B6
:102FA000A900000004000000AA0000001E000000AC
:102FB000AB0000001E000000CC0000001900000063
:102FC000CD0000000B000000CE0000001300000048
:102FD000CF00000064000000D000000021000000CD
:102FE000D10000000F000000D200000088000000A7
:102FF000E000000001000000E1000000040000000B
:10300000E200000041000000E3000000D6000000E4
:10301000E400000000000000E50000000C000000DB
:10302000E60000000A000000E700000000000000C9
:10303000E800000000000000E900000000000000BF
:10304000EE00000007000000EF000000010000009B
:10305000000000001E000000010000001E00000033
:10306000020000000F00000003000000100000003C
:103070000400000002000000050000000000000045
:1030800006000000B000000007000000040000007F
:10309000080000000D000000090000000E00000004
:1030A0000A0000009C0000000B000000040000006B
:1030B0000C000000050000000D0000000F000000E3
:1030C0000E000000020000000F00000012000000CF
:1030D00010000000020000001100000002000000CB
:1030E00012000000000000001300000001000000BA
:1030F000140000000500000015000000070000009B
:103100001600000005000000170000000700000086
:103110001800000001000000190000000400000079
:103120001A000000050000001B0000000C00000059
:103130001C0000002A0000001D000000010000002B
:103140001E00000000000000210000000000000040
:10315000220000000000000023000000000000002A
:103160002500000001000000260000000000000013
:103170002700000039000000280000007F00000048
:1031800029000000080000003000000003000000DB
:103190003100000000000000320000001A000000B2
:1031A000330000001A000000340000000700000097
:1031B000350000000700000036000000010000009C
:1031C00037000000FF00000038000000360000005B
:1031D00039000000070000003A0000000000000075
:1031E0003E000000FF0000003F0000000000000063
:1031F0004000000077000000410000004000000097
:103200004200000000000000430000003000000009
:1032100044000000A0000000450000005C00000029
:103220004600000000000000470000000000000011
:1032300048000000580000004A0000001E00000086
:103240004B0000001E0000004C00000000000000C9
:103250004D000000000000004E000000A000000033
:103260004F0000008000000050000000000000003F
:1032700051000000000000005200000000000000AB
:103280005300000000000000540000000000000097
:1032900057000000800000005900000010000000EE
:1032A0005A000000080000005B00000094000000CD
:1032B0005C000000E80000005D0000000800000065
:1032C0005E0000003D0000005F000000990000006B
:1032D00060000000450000006100000040000000A8
:1032E000630000002D0000006400000002000000E8
:1032F000650000009600000066000000000000006D
:103300006700000097000000680000000100000056
:1033100069000000CD0000006A000000010000000C
:103320006B000000B00000006C0000000400000012
:103330006D0000002C0000006E0000000100000085
:103340006F0000003200000071000000000000006B
:103350007200000001000000730000003500000052
:103360007400000000000000750000003300000041
:10337000760000003100000077000000010000002E
:103380007C000000840000007D00000003000000BD
:103390007E00000001000000F00700200000000097
:1033A00000000000DC0A0020440B0020AC0B0020D1
:1033B000000000000000000000000000000000000D
:1033C00000000000000000000000000000000000FD
:1033D00000000000000000000000000000000000ED
:1033E00000000000000000000000000000000000DD
:1033F00000000000000000000000000000000000CD
:1034000000000000000000000000000000000000BC
:1034100000000000000000000000000000000000AC
:10342000000000000000000000000000000000009C
:10343000000000000000000000000000000000008C
:10344000000000000000000001000000000000007B
:103450000E33CDAB34126DE6ECDE05000B00000040
:10346000000000000000000000000000000000005C
:10347000000000000000000000000000000000004C
:10348000000000000000000000000000000000003C
:10349000000000000000000000000000000000002C
:04000005080028E1E6
:00000001FF
